{
  "_format": "hh-sol-artifact-1",
  "contractName": "MyToken",
  "sourceName": "contracts/MyToken.sol",
  "abi": [
    {
      "inputs": [],
      "stateMutability": "nonpayable",
      "type": "constructor"
    },
    {
      "anonymous": false,
      "inputs": [
        {
          "indexed": true,
          "internalType": "address",
          "name": "owner",
          "type": "address"
        },
        {
          "indexed": true,
          "internalType": "address",
          "name": "approved",
          "type": "address"
        },
        {
          "indexed": true,
          "internalType": "uint256",
          "name": "tokenId",
          "type": "uint256"
        }
      ],
      "name": "Approval",
      "type": "event"
    },
    {
      "anonymous": false,
      "inputs": [
        {
          "indexed": true,
          "internalType": "address",
          "name": "owner",
          "type": "address"
        },
        {
          "indexed": true,
          "internalType": "address",
          "name": "operator",
          "type": "address"
        },
        {
          "indexed": false,
          "internalType": "bool",
          "name": "approved",
          "type": "bool"
        }
      ],
      "name": "ApprovalForAll",
      "type": "event"
    },
    {
      "anonymous": false,
      "inputs": [
        {
          "indexed": true,
          "internalType": "address",
          "name": "previousOwner",
          "type": "address"
        },
        {
          "indexed": true,
          "internalType": "address",
          "name": "newOwner",
          "type": "address"
        }
      ],
      "name": "OwnershipTransferred",
      "type": "event"
    },
    {
      "anonymous": false,
      "inputs": [
        {
          "indexed": true,
          "internalType": "address",
          "name": "from",
          "type": "address"
        },
        {
          "indexed": true,
          "internalType": "address",
          "name": "to",
          "type": "address"
        },
        {
          "indexed": true,
          "internalType": "uint256",
          "name": "tokenId",
          "type": "uint256"
        }
      ],
      "name": "Transfer",
      "type": "event"
    },
    {
      "inputs": [
        {
          "internalType": "address",
          "name": "to",
          "type": "address"
        },
        {
          "internalType": "uint256",
          "name": "tokenId",
          "type": "uint256"
        }
      ],
      "name": "approve",
      "outputs": [],
      "stateMutability": "nonpayable",
      "type": "function"
    },
    {
      "inputs": [
        {
          "internalType": "address",
          "name": "owner",
          "type": "address"
        }
      ],
      "name": "balanceOf",
      "outputs": [
        {
          "internalType": "uint256",
          "name": "",
          "type": "uint256"
        }
      ],
      "stateMutability": "view",
      "type": "function"
    },
    {
      "inputs": [
        {
          "internalType": "uint256",
          "name": "tokenId",
          "type": "uint256"
        }
      ],
      "name": "getApproved",
      "outputs": [
        {
          "internalType": "address",
          "name": "",
          "type": "address"
        }
      ],
      "stateMutability": "view",
      "type": "function"
    },
    {
      "inputs": [
        {
          "internalType": "address",
          "name": "owner",
          "type": "address"
        },
        {
          "internalType": "address",
          "name": "operator",
          "type": "address"
        }
      ],
      "name": "isApprovedForAll",
      "outputs": [
        {
          "internalType": "bool",
          "name": "",
          "type": "bool"
        }
      ],
      "stateMutability": "view",
      "type": "function"
    },
    {
      "inputs": [
        {
          "internalType": "address",
          "name": "receipent",
          "type": "address"
        },
        {
          "internalType": "string",
          "name": "tokenURI",
          "type": "string"
        }
      ],
      "name": "mintNFT",
      "outputs": [
        {
          "internalType": "uint256",
          "name": "",
          "type": "uint256"
        }
      ],
      "stateMutability": "nonpayable",
      "type": "function"
    },
    {
      "inputs": [],
      "name": "name",
      "outputs": [
        {
          "internalType": "string",
          "name": "",
          "type": "string"
        }
      ],
      "stateMutability": "view",
      "type": "function"
    },
    {
      "inputs": [],
      "name": "owner",
      "outputs": [
        {
          "internalType": "address",
          "name": "",
          "type": "address"
        }
      ],
      "stateMutability": "view",
      "type": "function"
    },
    {
      "inputs": [
        {
          "internalType": "uint256",
          "name": "tokenId",
          "type": "uint256"
        }
      ],
      "name": "ownerOf",
      "outputs": [
        {
          "internalType": "address",
          "name": "",
          "type": "address"
        }
      ],
      "stateMutability": "view",
      "type": "function"
    },
    {
      "inputs": [],
      "name": "renounceOwnership",
      "outputs": [],
      "stateMutability": "nonpayable",
      "type": "function"
    },
    {
      "inputs": [
        {
          "internalType": "address",
          "name": "to",
          "type": "address"
        },
        {
          "internalType": "uint256",
          "name": "tokenId",
          "type": "uint256"
        }
      ],
      "name": "safeMint",
      "outputs": [],
      "stateMutability": "nonpayable",
      "type": "function"
    },
    {
      "inputs": [
        {
          "internalType": "address",
          "name": "from",
          "type": "address"
        },
        {
          "internalType": "address",
          "name": "to",
          "type": "address"
        },
        {
          "internalType": "uint256",
          "name": "tokenId",
          "type": "uint256"
        }
      ],
      "name": "safeTransferFrom",
      "outputs": [],
      "stateMutability": "nonpayable",
      "type": "function"
    },
    {
      "inputs": [
        {
          "internalType": "address",
          "name": "from",
          "type": "address"
        },
        {
          "internalType": "address",
          "name": "to",
          "type": "address"
        },
        {
          "internalType": "uint256",
          "name": "tokenId",
          "type": "uint256"
        },
        {
          "internalType": "bytes",
          "name": "data",
          "type": "bytes"
        }
      ],
      "name": "safeTransferFrom",
      "outputs": [],
      "stateMutability": "nonpayable",
      "type": "function"
    },
    {
      "inputs": [
        {
          "internalType": "address",
          "name": "operator",
          "type": "address"
        },
        {
          "internalType": "bool",
          "name": "approved",
          "type": "bool"
        }
      ],
      "name": "setApprovalForAll",
      "outputs": [],
      "stateMutability": "nonpayable",
      "type": "function"
    },
    {
      "inputs": [
        {
          "internalType": "bytes4",
          "name": "interfaceId",
          "type": "bytes4"
        }
      ],
      "name": "supportsInterface",
      "outputs": [
        {
          "internalType": "bool",
          "name": "",
          "type": "bool"
        }
      ],
      "stateMutability": "view",
      "type": "function"
    },
    {
      "inputs": [],
      "name": "symbol",
      "outputs": [
        {
          "internalType": "string",
          "name": "",
          "type": "string"
        }
      ],
      "stateMutability": "view",
      "type": "function"
    },
    {
      "inputs": [
        {
          "internalType": "uint256",
          "name": "tokenId",
          "type": "uint256"
        }
      ],
      "name": "tokenURI",
      "outputs": [
        {
          "internalType": "string",
          "name": "",
          "type": "string"
        }
      ],
      "stateMutability": "view",
      "type": "function"
    },
    {
      "inputs": [
        {
          "internalType": "address",
          "name": "from",
          "type": "address"
        },
        {
          "internalType": "address",
          "name": "to",
          "type": "address"
        },
        {
          "internalType": "uint256",
          "name": "tokenId",
          "type": "uint256"
        }
      ],
      "name": "transferFrom",
      "outputs": [],
      "stateMutability": "nonpayable",
      "type": "function"
    },
    {
      "inputs": [
        {
          "internalType": "address",
          "name": "newOwner",
          "type": "address"
        }
      ],
      "name": "transferOwnership",
      "outputs": [],
      "stateMutability": "nonpayable",
      "type": "function"
    }
  ],
  "bytecode": "0x60806040523480156200001157600080fd5b506040518060400160405280600a81526020017f546f6b656e2054657374000000000000000000000000000000000000000000008152506040518060400160405280600381526020017f4d544b0000000000000000000000000000000000000000000000000000000000815250816000908051906020019062000096929190620001a6565b508060019080519060200190620000af929190620001a6565b505050620000d2620000c6620000d860201b60201c565b620000e060201b60201c565b620002bb565b600033905090565b6000600760009054906101000a900473ffffffffffffffffffffffffffffffffffffffff16905081600760006101000a81548173ffffffffffffffffffffffffffffffffffffffff021916908373ffffffffffffffffffffffffffffffffffffffff1602179055508173ffffffffffffffffffffffffffffffffffffffff168173ffffffffffffffffffffffffffffffffffffffff167f8be0079c531659141344cd1fd0a4f28419497f9722a3daafe3b4186f6b6457e060405160405180910390a35050565b828054620001b49062000256565b90600052602060002090601f016020900481019282620001d8576000855562000224565b82601f10620001f357805160ff191683800117855562000224565b8280016001018555821562000224579182015b828111156200022357825182559160200191906001019062000206565b5b50905062000233919062000237565b5090565b5b808211156200025257600081600090555060010162000238565b5090565b600060028204905060018216806200026f57607f821691505b602082108114156200028657620002856200028c565b5b50919050565b7f4e487b7100000000000000000000000000000000000000000000000000000000600052602260045260246000fd5b612e9f80620002cb6000396000f3fe608060405234801561001057600080fd5b50600436106101165760003560e01c80638da5cb5b116100a2578063b88d4fde11610071578063b88d4fde146102cb578063c87b56dd146102e7578063e985e9c514610317578063eacabe1414610347578063f2fde38b1461037757610116565b80638da5cb5b1461025757806395d89b4114610275578063a144819414610293578063a22cb465146102af57610116565b806323b872dd116100e957806323b872dd146101b557806342842e0e146101d15780636352211e146101ed57806370a082311461021d578063715018a61461024d57610116565b806301ffc9a71461011b57806306fdde031461014b578063081812fc14610169578063095ea7b314610199575b600080fd5b61013560048036038101906101309190612147565b610393565b6040516101429190612513565b60405180910390f35b610153610475565b604051610160919061252e565b60405180910390f35b610183600480360381019061017e91906121a1565b610507565b60405161019091906124ac565b60405180910390f35b6101b360048036038101906101ae9190612107565b61054d565b005b6101cf60048036038101906101ca9190611f95565b610665565b005b6101eb60048036038101906101e69190611f95565b6106c5565b005b610207600480360381019061020291906121a1565b6106e5565b60405161021491906124ac565b60405180910390f35b61023760048036038101906102329190611f28565b61076c565b6040516102449190612710565b60405180910390f35b610255610824565b005b61025f610838565b60405161026c91906124ac565b60405180910390f35b61027d610862565b60405161028a919061252e565b60405180910390f35b6102ad60048036038101906102a89190612107565b6108f4565b005b6102c960048036038101906102c4919061206b565b61090a565b005b6102e560048036038101906102e09190611fe8565b610920565b005b61030160048036038101906102fc91906121a1565b610982565b60405161030e919061252e565b60405180910390f35b610331600480360381019061032c9190611f55565b610a95565b60405161033e9190612513565b60405180910390f35b610361600480360381019061035c91906120ab565b610b29565b60405161036e9190612710565b60405180910390f35b610391600480360381019061038c9190611f28565b610b69565b005b60007f80ac58cd000000000000000000000000000000000000000000000000000000007bffffffffffffffffffffffffffffffffffffffffffffffffffffffff1916827bffffffffffffffffffffffffffffffffffffffffffffffffffffffff1916148061045e57507f5b5e139f000000000000000000000000000000000000000000000000000000007bffffffffffffffffffffffffffffffffffffffffffffffffffffffff1916827bffffffffffffffffffffffffffffffffffffffffffffffffffffffff1916145b8061046e575061046d82610bed565b5b9050919050565b60606000805461048490612935565b80601f01602080910402602001604051908101604052809291908181526020018280546104b090612935565b80156104fd5780601f106104d2576101008083540402835291602001916104fd565b820191906000526020600020905b8154815290600101906020018083116104e057829003601f168201915b5050505050905090565b600061051282610c57565b6004600083815260200190815260200160002060009054906101000a900473ffffffffffffffffffffffffffffffffffffffff169050919050565b6000610558826106e5565b90508073ffffffffffffffffffffffffffffffffffffffff168373ffffffffffffffffffffffffffffffffffffffff1614156105c9576040517f08c379a00000000000000000000000000000000000000000000000000000000081526004016105c0906126d0565b60405180910390fd5b8073ffffffffffffffffffffffffffffffffffffffff166105e8610ca2565b73ffffffffffffffffffffffffffffffffffffffff161480610617575061061681610611610ca2565b610a95565b5b610656576040517f08c379a000000000000000000000000000000000000000000000000000000000815260040161064d906126f0565b60405180910390fd5b6106608383610caa565b505050565b610676610670610ca2565b82610d63565b6106b5576040517f08c379a00000000000000000000000000000000000000000000000000000000081526004016106ac90612550565b60405180910390fd5b6106c0838383610df8565b505050565b6106e083838360405180602001604052806000815250610920565b505050565b6000806106f1836110f2565b9050600073ffffffffffffffffffffffffffffffffffffffff168173ffffffffffffffffffffffffffffffffffffffff161415610763576040517f08c379a000000000000000000000000000000000000000000000000000000000815260040161075a906126b0565b60405180910390fd5b80915050919050565b60008073ffffffffffffffffffffffffffffffffffffffff168273ffffffffffffffffffffffffffffffffffffffff1614156107dd576040517f08c379a00000000000000000000000000000000000000000000000000000000081526004016107d490612630565b60405180910390fd5b600360008373ffffffffffffffffffffffffffffffffffffffff1673ffffffffffffffffffffffffffffffffffffffff168152602001908152602001600020549050919050565b61082c61112f565b61083660006111ad565b565b6000600760009054906101000a900473ffffffffffffffffffffffffffffffffffffffff16905090565b60606001805461087190612935565b80601f016020809104026020016040519081016040528092919081815260200182805461089d90612935565b80156108ea5780601f106108bf576101008083540402835291602001916108ea565b820191906000526020600020905b8154815290600101906020018083116108cd57829003601f168201915b5050505050905090565b6108fc61112f565b6109068282611273565b5050565b61091c610915610ca2565b8383611291565b5050565b61093161092b610ca2565b83610d63565b610970576040517f08c379a000000000000000000000000000000000000000000000000000000000815260040161096790612550565b60405180910390fd5b61097c848484846113fe565b50505050565b606061098d82610c57565b60006006600084815260200190815260200160002080546109ad90612935565b80601f01602080910402602001604051908101604052809291908181526020018280546109d990612935565b8015610a265780601f106109fb57610100808354040283529160200191610a26565b820191906000526020600020905b815481529060010190602001808311610a0957829003601f168201915b505050505090506000610a3761145a565b9050600081511415610a4d578192505050610a90565b600082511115610a82578082604051602001610a6a929190612488565b60405160208183030381529060405292505050610a90565b610a8b84611471565b925050505b919050565b6000600560008473ffffffffffffffffffffffffffffffffffffffff1673ffffffffffffffffffffffffffffffffffffffff16815260200190815260200160002060008373ffffffffffffffffffffffffffffffffffffffff1673ffffffffffffffffffffffffffffffffffffffff16815260200190815260200160002060009054906101000a900460ff16905092915050565b6000610b3361112f565b610b3d60086114d9565b6000610b4960086114ef565b9050610b5584826114fd565b610b5f818461171b565b8091505092915050565b610b7161112f565b600073ffffffffffffffffffffffffffffffffffffffff168173ffffffffffffffffffffffffffffffffffffffff161415610be1576040517f08c379a0000000000000000000000000000000000000000000000000000000008152600401610bd890612590565b60405180910390fd5b610bea816111ad565b50565b60007f01ffc9a7000000000000000000000000000000000000000000000000000000007bffffffffffffffffffffffffffffffffffffffffffffffffffffffff1916827bffffffffffffffffffffffffffffffffffffffffffffffffffffffff1916149050919050565b610c608161178f565b610c9f576040517f08c379a0000000000000000000000000000000000000000000000000000000008152600401610c96906126b0565b60405180910390fd5b50565b600033905090565b816004600083815260200190815260200160002060006101000a81548173ffffffffffffffffffffffffffffffffffffffff021916908373ffffffffffffffffffffffffffffffffffffffff160217905550808273ffffffffffffffffffffffffffffffffffffffff16610d1d836106e5565b73ffffffffffffffffffffffffffffffffffffffff167f8c5be1e5ebec7d5bd14f71427d1e84f3dd0314c0f7b2291e5b200ac8c7c3b92560405160405180910390a45050565b600080610d6f836106e5565b90508073ffffffffffffffffffffffffffffffffffffffff168473ffffffffffffffffffffffffffffffffffffffff161480610db15750610db08185610a95565b5b80610def57508373ffffffffffffffffffffffffffffffffffffffff16610dd784610507565b73ffffffffffffffffffffffffffffffffffffffff16145b91505092915050565b8273ffffffffffffffffffffffffffffffffffffffff16610e18826106e5565b73ffffffffffffffffffffffffffffffffffffffff1614610e6e576040517f08c379a0000000000000000000000000000000000000000000000000000000008152600401610e65906125b0565b60405180910390fd5b600073ffffffffffffffffffffffffffffffffffffffff168273ffffffffffffffffffffffffffffffffffffffff161415610ede576040517f08c379a0000000000000000000000000000000000000000000000000000000008152600401610ed5906125f0565b60405180910390fd5b610eeb83838360016117d0565b8273ffffffffffffffffffffffffffffffffffffffff16610f0b826106e5565b73ffffffffffffffffffffffffffffffffffffffff1614610f61576040517f08c379a0000000000000000000000000000000000000000000000000000000008152600401610f58906125b0565b60405180910390fd5b6004600082815260200190815260200160002060006101000a81549073ffffffffffffffffffffffffffffffffffffffff02191690556001600360008573ffffffffffffffffffffffffffffffffffffffff1673ffffffffffffffffffffffffffffffffffffffff168152602001908152602001600020600082825403925050819055506001600360008473ffffffffffffffffffffffffffffffffffffffff1673ffffffffffffffffffffffffffffffffffffffff16815260200190815260200160002060008282540192505081905550816002600083815260200190815260200160002060006101000a81548173ffffffffffffffffffffffffffffffffffffffff021916908373ffffffffffffffffffffffffffffffffffffffff160217905550808273ffffffffffffffffffffffffffffffffffffffff168473ffffffffffffffffffffffffffffffffffffffff167fddf252ad1be2c89b69c2b068fc378daa952ba7f163c4a11628f55a4df523b3ef60405160405180910390a46110ed83838360016118f6565b505050565b60006002600083815260200190815260200160002060009054906101000a900473ffffffffffffffffffffffffffffffffffffffff169050919050565b611137610ca2565b73ffffffffffffffffffffffffffffffffffffffff16611155610838565b73ffffffffffffffffffffffffffffffffffffffff16146111ab576040517f08c379a00000000000000000000000000000000000000000000000000000000081526004016111a290612690565b60405180910390fd5b565b6000600760009054906101000a900473ffffffffffffffffffffffffffffffffffffffff16905081600760006101000a81548173ffffffffffffffffffffffffffffffffffffffff021916908373ffffffffffffffffffffffffffffffffffffffff1602179055508173ffffffffffffffffffffffffffffffffffffffff168173ffffffffffffffffffffffffffffffffffffffff167f8be0079c531659141344cd1fd0a4f28419497f9722a3daafe3b4186f6b6457e060405160405180910390a35050565b61128d8282604051806020016040528060008152506118fc565b5050565b8173ffffffffffffffffffffffffffffffffffffffff168373ffffffffffffffffffffffffffffffffffffffff161415611300576040517f08c379a00000000000000000000000000000000000000000000000000000000081526004016112f790612610565b60405180910390fd5b80600560008573ffffffffffffffffffffffffffffffffffffffff1673ffffffffffffffffffffffffffffffffffffffff16815260200190815260200160002060008473ffffffffffffffffffffffffffffffffffffffff1673ffffffffffffffffffffffffffffffffffffffff16815260200190815260200160002060006101000a81548160ff0219169083151502179055508173ffffffffffffffffffffffffffffffffffffffff168373ffffffffffffffffffffffffffffffffffffffff167f17307eab39ab6107e8899845ad3d59bd9653f200f220920489ca2b5937696c31836040516113f19190612513565b60405180910390a3505050565b611409848484610df8565b61141584848484611957565b611454576040517f08c379a000000000000000000000000000000000000000000000000000000000815260040161144b90612570565b60405180910390fd5b50505050565b606060405180602001604052806000815250905090565b606061147c82610c57565b600061148661145a565b905060008151116114a657604051806020016040528060008152506114d1565b806114b084611aee565b6040516020016114c1929190612488565b6040516020818303038152906040525b915050919050565b6001816000016000828254019250508190555050565b600081600001549050919050565b600073ffffffffffffffffffffffffffffffffffffffff168273ffffffffffffffffffffffffffffffffffffffff16141561156d576040517f08c379a000000000000000000000000000000000000000000000000000000000815260040161156490612670565b60405180910390fd5b6115768161178f565b156115b6576040517f08c379a00000000000000000000000000000000000000000000000000000000081526004016115ad906125d0565b60405180910390fd5b6115c46000838360016117d0565b6115cd8161178f565b1561160d576040517f08c379a0000000000000000000000000000000000000000000000000000000008152600401611604906125d0565b60405180910390fd5b6001600360008473ffffffffffffffffffffffffffffffffffffffff1673ffffffffffffffffffffffffffffffffffffffff16815260200190815260200160002060008282540192505081905550816002600083815260200190815260200160002060006101000a81548173ffffffffffffffffffffffffffffffffffffffff021916908373ffffffffffffffffffffffffffffffffffffffff160217905550808273ffffffffffffffffffffffffffffffffffffffff16600073ffffffffffffffffffffffffffffffffffffffff167fddf252ad1be2c89b69c2b068fc378daa952ba7f163c4a11628f55a4df523b3ef60405160405180910390a46117176000838360016118f6565b5050565b6117248261178f565b611763576040517f08c379a000000000000000000000000000000000000000000000000000000000815260040161175a90612650565b60405180910390fd5b8060066000848152602001908152602001600020908051906020019061178a929190611d3c565b505050565b60008073ffffffffffffffffffffffffffffffffffffffff166117b1836110f2565b73ffffffffffffffffffffffffffffffffffffffff1614159050919050565b60018111156118f057600073ffffffffffffffffffffffffffffffffffffffff168473ffffffffffffffffffffffffffffffffffffffff16146118645780600360008673ffffffffffffffffffffffffffffffffffffffff1673ffffffffffffffffffffffffffffffffffffffff168152602001908152602001600020600082825461185c919061284b565b925050819055505b600073ffffffffffffffffffffffffffffffffffffffff168373ffffffffffffffffffffffffffffffffffffffff16146118ef5780600360008573ffffffffffffffffffffffffffffffffffffffff1673ffffffffffffffffffffffffffffffffffffffff16815260200190815260200160002060008282546118e791906127f5565b925050819055505b5b50505050565b50505050565b61190683836114fd565b6119136000848484611957565b611952576040517f08c379a000000000000000000000000000000000000000000000000000000000815260040161194990612570565b60405180910390fd5b505050565b60006119788473ffffffffffffffffffffffffffffffffffffffff16611bc6565b15611ae1578373ffffffffffffffffffffffffffffffffffffffff1663150b7a026119a1610ca2565b8786866040518563ffffffff1660e01b81526004016119c394939291906124c7565b602060405180830381600087803b1580156119dd57600080fd5b505af1925050508015611a0e57506040513d601f19601f82011682018060405250810190611a0b9190612174565b60015b611a91573d8060008114611a3e576040519150601f19603f3d011682016040523d82523d6000602084013e611a43565b606091505b50600081511415611a89576040517f08c379a0000000000000000000000000000000000000000000000000000000008152600401611a8090612570565b60405180910390fd5b805181602001fd5b63150b7a0260e01b7bffffffffffffffffffffffffffffffffffffffffffffffffffffffff1916817bffffffffffffffffffffffffffffffffffffffffffffffffffffffff191614915050611ae6565b600190505b949350505050565b606060006001611afd84611be9565b01905060008167ffffffffffffffff811115611b1c57611b1b612a25565b5b6040519080825280601f01601f191660200182016040528015611b4e5781602001600182028036833780820191505090505b509050600082602001820190505b600115611bbb578080600190039150507f3031323334353637383961626364656600000000000000000000000000000000600a86061a8153600a8581611ba557611ba46129c7565b5b0494506000851415611bb657611bbb565b611b5c565b819350505050919050565b6000808273ffffffffffffffffffffffffffffffffffffffff163b119050919050565b600080600090507a184f03e93ff9f4daa797ed6e38ed64bf6a1f0100000000000000008310611c47577a184f03e93ff9f4daa797ed6e38ed64bf6a1f0100000000000000008381611c3d57611c3c6129c7565b5b0492506040810190505b6d04ee2d6d415b85acef81000000008310611c84576d04ee2d6d415b85acef81000000008381611c7a57611c796129c7565b5b0492506020810190505b662386f26fc100008310611cb357662386f26fc100008381611ca957611ca86129c7565b5b0492506010810190505b6305f5e1008310611cdc576305f5e1008381611cd257611cd16129c7565b5b0492506008810190505b6127108310611d01576127108381611cf757611cf66129c7565b5b0492506004810190505b60648310611d245760648381611d1a57611d196129c7565b5b0492506002810190505b600a8310611d33576001810190505b80915050919050565b828054611d4890612935565b90600052602060002090601f016020900481019282611d6a5760008555611db1565b82601f10611d8357805160ff1916838001178555611db1565b82800160010185558215611db1579182015b82811115611db0578251825591602001919060010190611d95565b5b509050611dbe9190611dc2565b5090565b5b80821115611ddb576000816000905550600101611dc3565b5090565b6000611df2611ded84612750565b61272b565b905082815260208101848484011115611e0e57611e0d612a59565b5b611e198482856128f3565b509392505050565b6000611e34611e2f84612781565b61272b565b905082815260208101848484011115611e5057611e4f612a59565b5b611e5b8482856128f3565b509392505050565b600081359050611e7281612e0d565b92915050565b600081359050611e8781612e24565b92915050565b600081359050611e9c81612e3b565b92915050565b600081519050611eb181612e3b565b92915050565b600082601f830112611ecc57611ecb612a54565b5b8135611edc848260208601611ddf565b91505092915050565b600082601f830112611efa57611ef9612a54565b5b8135611f0a848260208601611e21565b91505092915050565b600081359050611f2281612e52565b92915050565b600060208284031215611f3e57611f3d612a63565b5b6000611f4c84828501611e63565b91505092915050565b60008060408385031215611f6c57611f6b612a63565b5b6000611f7a85828601611e63565b9250506020611f8b85828601611e63565b9150509250929050565b600080600060608486031215611fae57611fad612a63565b5b6000611fbc86828701611e63565b9350506020611fcd86828701611e63565b9250506040611fde86828701611f13565b9150509250925092565b6000806000806080858703121561200257612001612a63565b5b600061201087828801611e63565b945050602061202187828801611e63565b935050604061203287828801611f13565b925050606085013567ffffffffffffffff81111561205357612052612a5e565b5b61205f87828801611eb7565b91505092959194509250565b6000806040838503121561208257612081612a63565b5b600061209085828601611e63565b92505060206120a185828601611e78565b9150509250929050565b600080604083850312156120c2576120c1612a63565b5b60006120d085828601611e63565b925050602083013567ffffffffffffffff8111156120f1576120f0612a5e565b5b6120fd85828601611ee5565b9150509250929050565b6000806040838503121561211e5761211d612a63565b5b600061212c85828601611e63565b925050602061213d85828601611f13565b9150509250929050565b60006020828403121561215d5761215c612a63565b5b600061216b84828501611e8d565b91505092915050565b60006020828403121561218a57612189612a63565b5b600061219884828501611ea2565b91505092915050565b6000602082840312156121b7576121b6612a63565b5b60006121c584828501611f13565b91505092915050565b6121d78161287f565b82525050565b6121e681612891565b82525050565b60006121f7826127b2565b61220181856127c8565b9350612211818560208601612902565b61221a81612a68565b840191505092915050565b6000612230826127bd565b61223a81856127d9565b935061224a818560208601612902565b61225381612a68565b840191505092915050565b6000612269826127bd565b61227381856127ea565b9350612283818560208601612902565b80840191505092915050565b600061229c602d836127d9565b91506122a782612a79565b604082019050919050565b60006122bf6032836127d9565b91506122ca82612ac8565b604082019050919050565b60006122e26026836127d9565b91506122ed82612b17565b604082019050919050565b60006123056025836127d9565b915061231082612b66565b604082019050919050565b6000612328601c836127d9565b915061233382612bb5565b602082019050919050565b600061234b6024836127d9565b915061235682612bde565b604082019050919050565b600061236e6019836127d9565b915061237982612c2d565b602082019050919050565b60006123916029836127d9565b915061239c82612c56565b604082019050919050565b60006123b4602e836127d9565b91506123bf82612ca5565b604082019050919050565b60006123d76020836127d9565b91506123e282612cf4565b602082019050919050565b60006123fa6020836127d9565b915061240582612d1d565b602082019050919050565b600061241d6018836127d9565b915061242882612d46565b602082019050919050565b60006124406021836127d9565b915061244b82612d6f565b604082019050919050565b6000612463603d836127d9565b915061246e82612dbe565b604082019050919050565b612482816128e9565b82525050565b6000612494828561225e565b91506124a0828461225e565b91508190509392505050565b60006020820190506124c160008301846121ce565b92915050565b60006080820190506124dc60008301876121ce565b6124e960208301866121ce565b6124f66040830185612479565b818103606083015261250881846121ec565b905095945050505050565b600060208201905061252860008301846121dd565b92915050565b600060208201905081810360008301526125488184612225565b905092915050565b600060208201905081810360008301526125698161228f565b9050919050565b60006020820190508181036000830152612589816122b2565b9050919050565b600060208201905081810360008301526125a9816122d5565b9050919050565b600060208201905081810360008301526125c9816122f8565b9050919050565b600060208201905081810360008301526125e98161231b565b9050919050565b600060208201905081810360008301526126098161233e565b9050919050565b6000602082019050818103600083015261262981612361565b9050919050565b6000602082019050818103600083015261264981612384565b9050919050565b60006020820190508181036000830152612669816123a7565b9050919050565b60006020820190508181036000830152612689816123ca565b9050919050565b600060208201905081810360008301526126a9816123ed565b9050919050565b600060208201905081810360008301526126c981612410565b9050919050565b600060208201905081810360008301526126e981612433565b9050919050565b6000602082019050818103600083015261270981612456565b9050919050565b60006020820190506127256000830184612479565b92915050565b6000612735612746565b90506127418282612967565b919050565b6000604051905090565b600067ffffffffffffffff82111561276b5761276a612a25565b5b61277482612a68565b9050602081019050919050565b600067ffffffffffffffff82111561279c5761279b612a25565b5b6127a582612a68565b9050602081019050919050565b600081519050919050565b600081519050919050565b600082825260208201905092915050565b600082825260208201905092915050565b600081905092915050565b6000612800826128e9565b915061280b836128e9565b9250827fffffffffffffffffffffffffffffffffffffffffffffffffffffffffffffffff038211156128405761283f612998565b5b828201905092915050565b6000612856826128e9565b9150612861836128e9565b92508282101561287457612873612998565b5b828203905092915050565b600061288a826128c9565b9050919050565b60008115159050919050565b60007fffffffff0000000000000000000000000000000000000000000000000000000082169050919050565b600073ffffffffffffffffffffffffffffffffffffffff82169050919050565b6000819050919050565b82818337600083830152505050565b60005b83811015612920578082015181840152602081019050612905565b8381111561292f576000848401525b50505050565b6000600282049050600182168061294d57607f821691505b60208210811415612961576129606129f6565b5b50919050565b61297082612a68565b810181811067ffffffffffffffff8211171561298f5761298e612a25565b5b80604052505050565b7f4e487b7100000000000000000000000000000000000000000000000000000000600052601160045260246000fd5b7f4e487b7100000000000000000000000000000000000000000000000000000000600052601260045260246000fd5b7f4e487b7100000000000000000000000000000000000000000000000000000000600052602260045260246000fd5b7f4e487b7100000000000000000000000000000000000000000000000000000000600052604160045260246000fd5b600080fd5b600080fd5b600080fd5b600080fd5b6000601f19601f8301169050919050565b7f4552433732313a2063616c6c6572206973206e6f7420746f6b656e206f776e6560008201527f72206f7220617070726f76656400000000000000000000000000000000000000602082015250565b7f4552433732313a207472616e7366657220746f206e6f6e20455243373231526560008201527f63656976657220696d706c656d656e7465720000000000000000000000000000602082015250565b7f4f776e61626c653a206e6577206f776e657220697320746865207a65726f206160008201527f6464726573730000000000000000000000000000000000000000000000000000602082015250565b7f4552433732313a207472616e736665722066726f6d20696e636f72726563742060008201527f6f776e6572000000000000000000000000000000000000000000000000000000602082015250565b7f4552433732313a20746f6b656e20616c7265616479206d696e74656400000000600082015250565b7f4552433732313a207472616e7366657220746f20746865207a65726f2061646460008201527f7265737300000000000000000000000000000000000000000000000000000000602082015250565b7f4552433732313a20617070726f766520746f2063616c6c657200000000000000600082015250565b7f4552433732313a2061646472657373207a65726f206973206e6f74206120766160008201527f6c6964206f776e65720000000000000000000000000000000000000000000000602082015250565b7f45524337323155524953746f726167653a2055524920736574206f66206e6f6e60008201527f6578697374656e7420746f6b656e000000000000000000000000000000000000602082015250565b7f4552433732313a206d696e7420746f20746865207a65726f2061646472657373600082015250565b7f4f776e61626c653a2063616c6c6572206973206e6f7420746865206f776e6572600082015250565b7f4552433732313a20696e76616c696420746f6b656e2049440000000000000000600082015250565b7f4552433732313a20617070726f76616c20746f2063757272656e74206f776e6560008201527f7200000000000000000000000000000000000000000000000000000000000000602082015250565b7f4552433732313a20617070726f76652063616c6c6572206973206e6f7420746f60008201527f6b656e206f776e6572206f7220617070726f76656420666f7220616c6c000000602082015250565b612e168161287f565b8114612e2157600080fd5b50565b612e2d81612891565b8114612e3857600080fd5b50565b612e448161289d565b8114612e4f57600080fd5b50565b612e5b816128e9565b8114612e6657600080fd5b5056fea2646970667358221220a2b97334ae827c5f6f7b3ccba9efa56ec0503115e9760b600e92bd270933abb264736f6c63430008070033",
  "linkReferences": {},
  "deployedLinkReferences": {}
}